{
  "_format": "hh-sol-artifact-1",
  "contractName": "TicketingFactory",
  "sourceName": "contracts/TicketFactory.sol",
  "abi": [
    {
      "anonymous": false,
      "inputs": [
        {
          "indexed": true,
          "internalType": "address",
          "name": "user",
          "type": "address"
        },
        {
          "indexed": true,
          "internalType": "address",
          "name": "contractAddress",
          "type": "address"
        }
      ],
      "name": "TicketingContractCreated",
      "type": "event"
    },
    {
      "inputs": [
        {
          "internalType": "address",
          "name": "",
          "type": "address"
        }
      ],
      "name": "contractURI",
      "outputs": [
        {
          "internalType": "string",
          "name": "",
          "type": "string"
        }
      ],
      "stateMutability": "view",
      "type": "function"
    },
    {
      "inputs": [
        {
          "internalType": "string",
          "name": "name",
          "type": "string"
        },
        {
          "internalType": "string",
          "name": "symbol",
          "type": "string"
        },
        {
          "internalType": "uint256",
          "name": "price",
          "type": "uint256"
        },
        {
          "internalType": "uint256",
          "name": "maxTicket",
          "type": "uint256"
        },
        {
          "internalType": "string",
          "name": "eventName",
          "type": "string"
        },
        {
          "internalType": "string",
          "name": "uri",
          "type": "string"
        }
      ],
      "name": "createTicketingContract",
      "outputs": [],
      "stateMutability": "nonpayable",
      "type": "function"
    },
    {
      "inputs": [
        {
          "internalType": "address",
          "name": "",
          "type": "address"
        }
      ],
      "name": "fetchEvents",
      "outputs": [
        {
          "internalType": "string",
          "name": "",
          "type": "string"
        }
      ],
      "stateMutability": "view",
      "type": "function"
    },
    {
      "inputs": [],
      "name": "getAllContractAddresses",
      "outputs": [
        {
          "internalType": "address[]",
          "name": "",
          "type": "address[]"
        }
      ],
      "stateMutability": "view",
      "type": "function"
    },
    {
      "inputs": [
        {
          "internalType": "address",
          "name": "user",
          "type": "address"
        }
      ],
      "name": "getUserContracts",
      "outputs": [
        {
          "internalType": "address[]",
          "name": "",
          "type": "address[]"
        }
      ],
      "stateMutability": "view",
      "type": "function"
    },
    {
      "inputs": [
        {
          "internalType": "address",
          "name": "",
          "type": "address"
        },
        {
          "internalType": "uint256",
          "name": "",
          "type": "uint256"
        }
      ],
      "name": "userContracts",
      "outputs": [
        {
          "internalType": "address",
          "name": "",
          "type": "address"
        }
      ],
      "stateMutability": "view",
      "type": "function"
    }
  ],
  "bytecode": "0x608060405234801561001057600080fd5b506146e9806100206000396000f3fe60806040523480156200001157600080fd5b5060043610620000695760003560e01c8062844d13146200006e57806334c925f014620000a45780633b33b61a14620000da5780639a4d79e414620000fc578063b789003d146200011c578063edfaf2941462000152575b600080fd5b6200008c600480360381019062000086919062000919565b62000188565b6040516200009b9190620009e5565b60405180910390f35b620000c26004803603810190620000bc919062000919565b62000230565b604051620000d1919062000ad7565b60405180910390f35b620000e4620002fe565b604051620000f3919062000ad7565b60405180910390f35b6200011a600480360381019062000114919062000c87565b62000531565b005b6200013a600480360381019062000134919062000d9f565b6200079b565b60405162000149919062000df7565b60405180910390f35b6200017060048036038101906200016a919062000919565b620007ea565b6040516200017f9190620009e5565b60405180910390f35b60026020528060005260406000206000915090508054620001a99062000e43565b80601f0160208091040260200160405190810160405280929190818152602001828054620001d79062000e43565b8015620002285780601f10620001fc5761010080835404028352916020019162000228565b820191906000526020600020905b8154815290600101906020018083116200020a57829003601f168201915b505050505081565b60606000808373ffffffffffffffffffffffffffffffffffffffff1673ffffffffffffffffffffffffffffffffffffffff168152602001908152602001600020805480602002602001604051908101604052809291908181526020018280548015620002f257602002820191906000526020600020905b8160009054906101000a900473ffffffffffffffffffffffffffffffffffffffff1673ffffffffffffffffffffffffffffffffffffffff1681526020019060010190808311620002a7575b50505050509050919050565b6060600060045467ffffffffffffffff81111562000321576200032062000b05565b5b604051908082528060200260200182016040528015620003505781602001602082028036833780820191505090505b5090506000805b600380549050811015620005285760008060006003848154811062000381576200038062000e78565b5b9060005260206000200160009054906101000a900473ffffffffffffffffffffffffffffffffffffffff1673ffffffffffffffffffffffffffffffffffffffff1673ffffffffffffffffffffffffffffffffffffffff1681526020019081526020016000208054806020026020016040519081016040528092919081815260200182805480156200046857602002820191906000526020600020905b8160009054906101000a900473ffffffffffffffffffffffffffffffffffffffff1673ffffffffffffffffffffffffffffffffffffffff16815260200190600101908083116200041d575b5050505050905060005b8151811015620005105781818151811062000492576200049162000e78565b5b6020026020010151858581518110620004b057620004af62000e78565b5b602002602001019073ffffffffffffffffffffffffffffffffffffffff16908173ffffffffffffffffffffffffffffffffffffffff16815250508380620004f79062000ed6565b9450508080620005079062000ed6565b91505062000472565b505080806200051f9062000ed6565b91505062000357565b50819250505090565b6000868686868686604051620005479062000892565b620005589695949392919062000f34565b604051809103906000f08015801562000575573d6000803e3d6000fd5b50905060008190506000803373ffffffffffffffffffffffffffffffffffffffff1673ffffffffffffffffffffffffffffffffffffffff168152602001908152602001600020819080600181540180825580915050600190039060005260206000200160009091909190916101000a81548173ffffffffffffffffffffffffffffffffffffffff021916908373ffffffffffffffffffffffffffffffffffffffff16021790555083600160008373ffffffffffffffffffffffffffffffffffffffff1673ffffffffffffffffffffffffffffffffffffffff16815260200190815260200160002090816200066a91906200118f565b5082600260008373ffffffffffffffffffffffffffffffffffffffff1673ffffffffffffffffffffffffffffffffffffffff1681526020019081526020016000209081620006b991906200118f565b506003819080600181540180825580915050600190039060005260206000200160009091909190916101000a81548173ffffffffffffffffffffffffffffffffffffffff021916908373ffffffffffffffffffffffffffffffffffffffff16021790555060046000815480929190620007329062000ed6565b91905055508073ffffffffffffffffffffffffffffffffffffffff163373ffffffffffffffffffffffffffffffffffffffff167f3a763121f02909544f03b3422494395ac2bdbae112aac62ab7ba1f89f321d9e160405160405180910390a35050505050505050565b60006020528160005260406000208181548110620007b857600080fd5b906000526020600020016000915091509054906101000a900473ffffffffffffffffffffffffffffffffffffffff1681565b600160205280600052604060002060009150905080546200080b9062000e43565b80601f0160208091040260200160405190810160405280929190818152602001828054620008399062000e43565b80156200088a5780601f106200085e576101008083540402835291602001916200088a565b820191906000526020600020905b8154815290600101906020018083116200086c57829003601f168201915b505050505081565b61343d806200127783390190565b6000604051905090565b600080fd5b600080fd5b600073ffffffffffffffffffffffffffffffffffffffff82169050919050565b6000620008e182620008b4565b9050919050565b620008f381620008d4565b8114620008ff57600080fd5b50565b6000813590506200091381620008e8565b92915050565b600060208284031215620009325762000931620008aa565b5b6000620009428482850162000902565b91505092915050565b600081519050919050565b600082825260208201905092915050565b60005b83811015620009875780820151818401526020810190506200096a565b60008484015250505050565b6000601f19601f8301169050919050565b6000620009b1826200094b565b620009bd818562000956565b9350620009cf81856020860162000967565b620009da8162000993565b840191505092915050565b6000602082019050818103600083015262000a018184620009a4565b905092915050565b600081519050919050565b600082825260208201905092915050565b6000819050602082019050919050565b62000a4081620008d4565b82525050565b600062000a54838362000a35565b60208301905092915050565b6000602082019050919050565b600062000a7a8262000a09565b62000a86818562000a14565b935062000a938362000a25565b8060005b8381101562000aca57815162000aae888262000a46565b975062000abb8362000a60565b92505060018101905062000a97565b5085935050505092915050565b6000602082019050818103600083015262000af3818462000a6d565b905092915050565b600080fd5b600080fd5b7f4e487b7100000000000000000000000000000000000000000000000000000000600052604160045260246000fd5b62000b3f8262000993565b810181811067ffffffffffffffff8211171562000b615762000b6062000b05565b5b80604052505050565b600062000b76620008a0565b905062000b84828262000b34565b919050565b600067ffffffffffffffff82111562000ba75762000ba662000b05565b5b62000bb28262000993565b9050602081019050919050565b82818337600083830152505050565b600062000be562000bdf8462000b89565b62000b6a565b90508281526020810184848401111562000c045762000c0362000b00565b5b62000c1184828562000bbf565b509392505050565b600082601f83011262000c315762000c3062000afb565b5b813562000c4384826020860162000bce565b91505092915050565b6000819050919050565b62000c618162000c4c565b811462000c6d57600080fd5b50565b60008135905062000c818162000c56565b92915050565b60008060008060008060c0878903121562000ca75762000ca6620008aa565b5b600087013567ffffffffffffffff81111562000cc85762000cc7620008af565b5b62000cd689828a0162000c19565b965050602087013567ffffffffffffffff81111562000cfa5762000cf9620008af565b5b62000d0889828a0162000c19565b955050604062000d1b89828a0162000c70565b945050606062000d2e89828a0162000c70565b935050608087013567ffffffffffffffff81111562000d525762000d51620008af565b5b62000d6089828a0162000c19565b92505060a087013567ffffffffffffffff81111562000d845762000d83620008af565b5b62000d9289828a0162000c19565b9150509295509295509295565b6000806040838503121562000db95762000db8620008aa565b5b600062000dc98582860162000902565b925050602062000ddc8582860162000c70565b9150509250929050565b62000df181620008d4565b82525050565b600060208201905062000e0e600083018462000de6565b92915050565b7f4e487b7100000000000000000000000000000000000000000000000000000000600052602260045260246000fd5b6000600282049050600182168062000e5c57607f821691505b60208210810362000e725762000e7162000e14565b5b50919050565b7f4e487b7100000000000000000000000000000000000000000000000000000000600052603260045260246000fd5b7f4e487b7100000000000000000000000000000000000000000000000000000000600052601160045260246000fd5b600062000ee38262000c4c565b91507fffffffffffffffffffffffffffffffffffffffffffffffffffffffffffffffff820362000f185762000f1762000ea7565b5b600182019050919050565b62000f2e8162000c4c565b82525050565b600060c082019050818103600083015262000f508189620009a4565b9050818103602083015262000f668188620009a4565b905062000f77604083018762000f23565b62000f86606083018662000f23565b818103608083015262000f9a8185620009a4565b905081810360a083015262000fb08184620009a4565b9050979650505050505050565b60008190508160005260206000209050919050565b60006020601f8301049050919050565b600082821b905092915050565b600060088302620010217fffffffffffffffffffffffffffffffffffffffffffffffffffffffffffffffff8262000fe2565b6200102d868362000fe2565b95508019841693508086168417925050509392505050565b6000819050919050565b6000620010706200106a620010648462000c4c565b62001045565b62000c4c565b9050919050565b6000819050919050565b6200108c836200104f565b620010a46200109b8262001077565b84845462000fef565b825550505050565b600090565b620010bb620010ac565b620010c881848462001081565b505050565b5b81811015620010f057620010e4600082620010b1565b600181019050620010ce565b5050565b601f8211156200113f57620011098162000fbd565b620011148462000fd2565b8101602085101562001124578190505b6200113c620011338562000fd2565b830182620010cd565b50505b505050565b600082821c905092915050565b6000620011646000198460080262001144565b1980831691505092915050565b60006200117f838362001151565b9150826002028217905092915050565b6200119a826200094b565b67ffffffffffffffff811115620011b657620011b562000b05565b5b620011c2825462000e43565b620011cf828285620010f4565b600060209050601f831160018114620012075760008415620011f2578287015190505b620011fe858262001171565b8655506200126e565b601f198416620012178662000fbd565b60005b8281101562001241578489015182556001820191506020850194506020810190506200121a565b868310156200126157848901516200125d601f89168262001151565b8355505b6001600288020188555050505b50505050505056fe60806040523480156200001157600080fd5b506040516200343d3803806200343d833981810160405281019062000037919062000273565b858581600090816200004a9190620005cc565b5080600190816200005c9190620005cc565b5050506000600781905550836008819055508260098190555081600b9081620000869190620005cc565b5080600c9081620000989190620005cc565b50505050505050620006b3565b6000604051905090565b600080fd5b600080fd5b600080fd5b600080fd5b6000601f19601f8301169050919050565b7f4e487b7100000000000000000000000000000000000000000000000000000000600052604160045260246000fd5b6200010e82620000c3565b810181811067ffffffffffffffff8211171562000130576200012f620000d4565b5b80604052505050565b600062000145620000a5565b905062000153828262000103565b919050565b600067ffffffffffffffff821115620001765762000175620000d4565b5b6200018182620000c3565b9050602081019050919050565b60005b83811015620001ae57808201518184015260208101905062000191565b60008484015250505050565b6000620001d1620001cb8462000158565b62000139565b905082815260208101848484011115620001f057620001ef620000be565b5b620001fd8482856200018e565b509392505050565b600082601f8301126200021d576200021c620000b9565b5b81516200022f848260208601620001ba565b91505092915050565b6000819050919050565b6200024d8162000238565b81146200025957600080fd5b50565b6000815190506200026d8162000242565b92915050565b60008060008060008060c08789031215620002935762000292620000af565b5b600087015167ffffffffffffffff811115620002b457620002b3620000b4565b5b620002c289828a0162000205565b965050602087015167ffffffffffffffff811115620002e657620002e5620000b4565b5b620002f489828a0162000205565b95505060406200030789828a016200025c565b94505060606200031a89828a016200025c565b935050608087015167ffffffffffffffff8111156200033e576200033d620000b4565b5b6200034c89828a0162000205565b92505060a087015167ffffffffffffffff81111562000370576200036f620000b4565b5b6200037e89828a0162000205565b9150509295509295509295565b600081519050919050565b7f4e487b7100000000000000000000000000000000000000000000000000000000600052602260045260246000fd5b60006002820490506001821680620003de57607f821691505b602082108103620003f457620003f362000396565b5b50919050565b60008190508160005260206000209050919050565b60006020601f8301049050919050565b600082821b905092915050565b6000600883026200045e7fffffffffffffffffffffffffffffffffffffffffffffffffffffffffffffffff826200041f565b6200046a86836200041f565b95508019841693508086168417925050509392505050565b6000819050919050565b6000620004ad620004a7620004a18462000238565b62000482565b62000238565b9050919050565b6000819050919050565b620004c9836200048c565b620004e1620004d882620004b4565b8484546200042c565b825550505050565b600090565b620004f8620004e9565b62000505818484620004be565b505050565b5b818110156200052d5762000521600082620004ee565b6001810190506200050b565b5050565b601f8211156200057c576200054681620003fa565b62000551846200040f565b8101602085101562000561578190505b6200057962000570856200040f565b8301826200050a565b50505b505050565b600082821c905092915050565b6000620005a16000198460080262000581565b1980831691505092915050565b6000620005bc83836200058e565b9150826002028217905092915050565b620005d7826200038b565b67ffffffffffffffff811115620005f357620005f2620000d4565b5b620005ff8254620003c5565b6200060c82828562000531565b600060209050601f8311600181146200064457600084156200062f578287015190505b6200063b8582620005ae565b865550620006ab565b601f1984166200065486620003fa565b60005b828110156200067e5784890151825560018201915060208501945060208101905062000657565b868310156200069e57848901516200069a601f8916826200058e565b8355505b6001600288020188555050505b505050505050565b612d7a80620006c36000396000f3fe6080604052600436106101665760003560e01c80638043c9c0116100d1578063c87b56dd1161008a578063e985e9c511610064578063e985e9c514610562578063eac989f81461059f578063edca914c146105ca578063f9f0164a146105d457610166565b8063c87b56dd146104cf578063d97390d71461050c578063dd11247e1461053757610166565b80638043c9c0146103d157806395d89b41146103fc578063a035b1fe14610427578063a22cb46514610452578063b1bb58551461047b578063b88d4fde146104a657610166565b806342842e0e1161012357806342842e0e1461028b578063540b75ee146102b45780636352211e146102f157806370a082311461032e57806371efdc211461036b57806375774100146103a857610166565b806301ffc9a71461016b57806306fdde03146101a8578063081812fc146101d3578063095ea7b31461021057806323b872dd146102395780632660644814610262575b600080fd5b34801561017757600080fd5b50610192600480360381019061018d91906120eb565b6105ff565b60405161019f9190612133565b60405180910390f35b3480156101b457600080fd5b506101bd610611565b6040516101ca91906121de565b60405180910390f35b3480156101df57600080fd5b506101fa60048036038101906101f59190612236565b6106a3565b60405161020791906122a4565b60405180910390f35b34801561021c57600080fd5b50610237600480360381019061023291906122eb565b6106bf565b005b34801561024557600080fd5b50610260600480360381019061025b919061232b565b6106d5565b005b34801561026e57600080fd5b5061028960048036038101906102849190612236565b6107d7565b005b34801561029757600080fd5b506102b260048036038101906102ad919061232b565b6108dd565b005b3480156102c057600080fd5b506102db60048036038101906102d6919061237e565b6108fd565b6040516102e891906123ba565b60405180910390f35b3480156102fd57600080fd5b5061031860048036038101906103139190612236565b610915565b60405161032591906122a4565b60405180910390f35b34801561033a57600080fd5b506103556004803603810190610350919061237e565b610927565b60405161036291906123ba565b60405180910390f35b34801561037757600080fd5b50610392600480360381019061038d9190612236565b6109e1565b60405161039f9190612133565b60405180910390f35b3480156103b457600080fd5b506103cf60048036038101906103ca9190612236565b610a01565b005b3480156103dd57600080fd5b506103e6610b50565b6040516103f391906121de565b60405180910390f35b34801561040857600080fd5b50610411610bde565b60405161041e91906121de565b60405180910390f35b34801561043357600080fd5b5061043c610c70565b60405161044991906123ba565b60405180910390f35b34801561045e57600080fd5b5061047960048036038101906104749190612401565b610c76565b005b34801561048757600080fd5b50610490610c8c565b60405161049d91906123ba565b60405180910390f35b3480156104b257600080fd5b506104cd60048036038101906104c89190612576565b610c92565b005b3480156104db57600080fd5b506104f660048036038101906104f19190612236565b610caf565b60405161050391906121de565b60405180910390f35b34801561051857600080fd5b50610521610cc1565b60405161052e91906121de565b60405180910390f35b34801561054357600080fd5b5061054c610d53565b60405161055991906123ba565b60405180910390f35b34801561056e57600080fd5b50610589600480360381019061058491906125f9565b610d59565b6040516105969190612133565b60405180910390f35b3480156105ab57600080fd5b506105b4610ded565b6040516105c191906121de565b60405180910390f35b6105d2610e7b565b005b3480156105e057600080fd5b506105e961101d565b6040516105f691906123ba565b60405180910390f35b600061060a82611023565b9050919050565b60606000805461062090612668565b80601f016020809104026020016040519081016040528092919081815260200182805461064c90612668565b80156106995780601f1061066e57610100808354040283529160200191610699565b820191906000526020600020905b81548152906001019060200180831161067c57829003601f168201915b5050505050905090565b60006106ae82611084565b506106b88261110c565b9050919050565b6106d182826106cc611149565b611151565b5050565b600073ffffffffffffffffffffffffffffffffffffffff168273ffffffffffffffffffffffffffffffffffffffff16036107475760006040517f64a0ae9200000000000000000000000000000000000000000000000000000000815260040161073e91906122a4565b60405180910390fd5b600061075b8383610756611149565b611163565b90508373ffffffffffffffffffffffffffffffffffffffff168173ffffffffffffffffffffffffffffffffffffffff16146107d1578382826040517f64283d7b0000000000000000000000000000000000000000000000000000000081526004016107c893929190612699565b60405180910390fd5b50505050565b3373ffffffffffffffffffffffffffffffffffffffff166107f782610915565b73ffffffffffffffffffffffffffffffffffffffff161461084d576040517f08c379a00000000000000000000000000000000000000000000000000000000081526004016108449061271c565b60405180910390fd5b600d600082815260200190815260200160002060009054906101000a900460ff16156108ae576040517f08c379a00000000000000000000000000000000000000000000000000000000081526004016108a590612788565b60405180910390fd5b6001600d600083815260200190815260200160002060006101000a81548160ff02191690831515021790555050565b6108f883838360405180602001604052806000815250610c92565b505050565b600e6020528060005260406000206000915090505481565b600061092082611084565b9050919050565b60008073ffffffffffffffffffffffffffffffffffffffff168273ffffffffffffffffffffffffffffffffffffffff160361099a5760006040517f89c62b6400000000000000000000000000000000000000000000000000000000815260040161099191906122a4565b60405180910390fd5b600360008373ffffffffffffffffffffffffffffffffffffffff1673ffffffffffffffffffffffffffffffffffffffff168152602001908152602001600020549050919050565b600d6020528060005260406000206000915054906101000a900460ff1681565b3373ffffffffffffffffffffffffffffffffffffffff16610a2182610915565b73ffffffffffffffffffffffffffffffffffffffff1614610a77576040517f08c379a0000000000000000000000000000000000000000000000000000000008152600401610a6e9061271c565b60405180910390fd5b600d600082815260200190815260200160002060009054906101000a900460ff1615610ad8576040517f08c379a0000000000000000000000000000000000000000000000000000000008152600401610acf90612788565b60405180910390fd5b6001600d600083815260200190815260200160002060006101000a81548160ff0219169083151502179055503373ffffffffffffffffffffffffffffffffffffffff166108fc6008549081150290604051600060405180830381858888f19350505050158015610b4c573d6000803e3d6000fd5b5050565b600b8054610b5d90612668565b80601f0160208091040260200160405190810160405280929190818152602001828054610b8990612668565b8015610bd65780601f10610bab57610100808354040283529160200191610bd6565b820191906000526020600020905b815481529060010190602001808311610bb957829003601f168201915b505050505081565b606060018054610bed90612668565b80601f0160208091040260200160405190810160405280929190818152602001828054610c1990612668565b8015610c665780601f10610c3b57610100808354040283529160200191610c66565b820191906000526020600020905b815481529060010190602001808311610c4957829003601f168201915b5050505050905090565b60085481565b610c88610c81611149565b838361137d565b5050565b60095481565b610c9d8484846106d5565b610ca9848484846114ec565b50505050565b6060610cba826116a3565b9050919050565b6060600b8054610cd090612668565b80601f0160208091040260200160405190810160405280929190818152602001828054610cfc90612668565b8015610d495780601f10610d1e57610100808354040283529160200191610d49565b820191906000526020600020905b815481529060010190602001808311610d2c57829003601f168201915b5050505050905090565b60075481565b6000600560008473ffffffffffffffffffffffffffffffffffffffff1673ffffffffffffffffffffffffffffffffffffffff16815260200190815260200160002060008373ffffffffffffffffffffffffffffffffffffffff1673ffffffffffffffffffffffffffffffffffffffff16815260200190815260200160002060009054906101000a900460ff16905092915050565b600c8054610dfa90612668565b80601f0160208091040260200160405190810160405280929190818152602001828054610e2690612668565b8015610e735780601f10610e4857610100808354040283529160200191610e73565b820191906000526020600020905b815481529060010190602001808311610e5657829003601f168201915b505050505081565b6009546007541115610ec2576040517f08c379a0000000000000000000000000000000000000000000000000000000008152600401610eb9906127f4565b60405180910390fd5b6008543414610f06576040517f08c379a0000000000000000000000000000000000000000000000000000000008152600401610efd90612860565b60405180910390fd5b6001600754610f1591906128af565b600a8190555060076000815480929190610f2e906128e3565b9190505550600a54600e60003373ffffffffffffffffffffffffffffffffffffffff1673ffffffffffffffffffffffffffffffffffffffff1681526020019081526020016000208190555061100f600a54600c8054610f8c90612668565b80601f0160208091040260200160405190810160405280929190818152602001828054610fb890612668565b80156110055780601f10610fda57610100808354040283529160200191611005565b820191906000526020600020905b815481529060010190602001808311610fe857829003601f168201915b50505050506117b6565b61101b33600a54611812565b565b600a5481565b6000634906490660e01b7bffffffffffffffffffffffffffffffffffffffffffffffffffffffff1916827bffffffffffffffffffffffffffffffffffffffffffffffffffffffff1916148061107d575061107c8261190b565b5b9050919050565b600080611090836119ed565b9050600073ffffffffffffffffffffffffffffffffffffffff168173ffffffffffffffffffffffffffffffffffffffff160361110357826040517f7e2732890000000000000000000000000000000000000000000000000000000081526004016110fa91906123ba565b60405180910390fd5b80915050919050565b60006004600083815260200190815260200160002060009054906101000a900473ffffffffffffffffffffffffffffffffffffffff169050919050565b600033905090565b61115e8383836001611a2a565b505050565b60008061116f846119ed565b9050600073ffffffffffffffffffffffffffffffffffffffff168373ffffffffffffffffffffffffffffffffffffffff16146111b1576111b0818486611bef565b5b600073ffffffffffffffffffffffffffffffffffffffff168173ffffffffffffffffffffffffffffffffffffffff1614611242576111f3600085600080611a2a565b6001600360008373ffffffffffffffffffffffffffffffffffffffff1673ffffffffffffffffffffffffffffffffffffffff168152602001908152602001600020600082825403925050819055505b600073ffffffffffffffffffffffffffffffffffffffff168573ffffffffffffffffffffffffffffffffffffffff16146112c5576001600360008773ffffffffffffffffffffffffffffffffffffffff1673ffffffffffffffffffffffffffffffffffffffff168152602001908152602001600020600082825401925050819055505b846002600086815260200190815260200160002060006101000a81548173ffffffffffffffffffffffffffffffffffffffff021916908373ffffffffffffffffffffffffffffffffffffffff160217905550838573ffffffffffffffffffffffffffffffffffffffff168273ffffffffffffffffffffffffffffffffffffffff167fddf252ad1be2c89b69c2b068fc378daa952ba7f163c4a11628f55a4df523b3ef60405160405180910390a4809150509392505050565b600073ffffffffffffffffffffffffffffffffffffffff168273ffffffffffffffffffffffffffffffffffffffff16036113ee57816040517f5b08ba180000000000000000000000000000000000000000000000000000000081526004016113e591906122a4565b60405180910390fd5b80600560008573ffffffffffffffffffffffffffffffffffffffff1673ffffffffffffffffffffffffffffffffffffffff16815260200190815260200160002060008473ffffffffffffffffffffffffffffffffffffffff1673ffffffffffffffffffffffffffffffffffffffff16815260200190815260200160002060006101000a81548160ff0219169083151502179055508173ffffffffffffffffffffffffffffffffffffffff168373ffffffffffffffffffffffffffffffffffffffff167f17307eab39ab6107e8899845ad3d59bd9653f200f220920489ca2b5937696c31836040516114df9190612133565b60405180910390a3505050565b60008373ffffffffffffffffffffffffffffffffffffffff163b111561169d578273ffffffffffffffffffffffffffffffffffffffff1663150b7a02611530611149565b8685856040518563ffffffff1660e01b81526004016115529493929190612980565b6020604051808303816000875af192505050801561158e57506040513d601f19601f8201168201806040525081019061158b91906129e1565b60015b611612573d80600081146115be576040519150601f19603f3d011682016040523d82523d6000602084013e6115c3565b606091505b50600081510361160a57836040517f64a0ae9200000000000000000000000000000000000000000000000000000000815260040161160191906122a4565b60405180910390fd5b805181602001fd5b63150b7a0260e01b7bffffffffffffffffffffffffffffffffffffffffffffffffffffffff1916817bffffffffffffffffffffffffffffffffffffffffffffffffffffffff19161461169b57836040517f64a0ae9200000000000000000000000000000000000000000000000000000000815260040161169291906122a4565b60405180910390fd5b505b50505050565b60606116ae82611084565b5060006006600084815260200190815260200160002080546116cf90612668565b80601f01602080910402602001604051908101604052809291908181526020018280546116fb90612668565b80156117485780601f1061171d57610100808354040283529160200191611748565b820191906000526020600020905b81548152906001019060200180831161172b57829003601f168201915b505050505090506000611759611cb3565b9050600081510361176e5781925050506117b1565b6000825111156117a357808260405160200161178b929190612a4a565b604051602081830303815290604052925050506117b1565b6117ac84611cca565b925050505b919050565b806006600084815260200190815260200160002090816117d69190612c1a565b507ff8e1a15aba9398e019f0b49df1a4fde98ee17ae345cb5f6b5e2c27f5033e8ce78260405161180691906123ba565b60405180910390a15050565b600073ffffffffffffffffffffffffffffffffffffffff168273ffffffffffffffffffffffffffffffffffffffff16036118845760006040517f64a0ae9200000000000000000000000000000000000000000000000000000000815260040161187b91906122a4565b60405180910390fd5b600061189283836000611163565b9050600073ffffffffffffffffffffffffffffffffffffffff168173ffffffffffffffffffffffffffffffffffffffff16146119065760006040517f73c6ac6e0000000000000000000000000000000000000000000000000000000081526004016118fd91906122a4565b60405180910390fd5b505050565b60007f80ac58cd000000000000000000000000000000000000000000000000000000007bffffffffffffffffffffffffffffffffffffffffffffffffffffffff1916827bffffffffffffffffffffffffffffffffffffffffffffffffffffffff191614806119d657507f5b5e139f000000000000000000000000000000000000000000000000000000007bffffffffffffffffffffffffffffffffffffffffffffffffffffffff1916827bffffffffffffffffffffffffffffffffffffffffffffffffffffffff1916145b806119e657506119e582611d33565b5b9050919050565b60006002600083815260200190815260200160002060009054906101000a900473ffffffffffffffffffffffffffffffffffffffff169050919050565b8080611a635750600073ffffffffffffffffffffffffffffffffffffffff168273ffffffffffffffffffffffffffffffffffffffff1614155b15611b97576000611a7384611084565b9050600073ffffffffffffffffffffffffffffffffffffffff168373ffffffffffffffffffffffffffffffffffffffff1614158015611ade57508273ffffffffffffffffffffffffffffffffffffffff168173ffffffffffffffffffffffffffffffffffffffff1614155b8015611af15750611aef8184610d59565b155b15611b3357826040517fa9fbf51f000000000000000000000000000000000000000000000000000000008152600401611b2a91906122a4565b60405180910390fd5b8115611b9557838573ffffffffffffffffffffffffffffffffffffffff168273ffffffffffffffffffffffffffffffffffffffff167f8c5be1e5ebec7d5bd14f71427d1e84f3dd0314c0f7b2291e5b200ac8c7c3b92560405160405180910390a45b505b836004600085815260200190815260200160002060006101000a81548173ffffffffffffffffffffffffffffffffffffffff021916908373ffffffffffffffffffffffffffffffffffffffff16021790555050505050565b611bfa838383611d9d565b611cae57600073ffffffffffffffffffffffffffffffffffffffff168373ffffffffffffffffffffffffffffffffffffffff1603611c6f57806040517f7e273289000000000000000000000000000000000000000000000000000000008152600401611c6691906123ba565b60405180910390fd5b81816040517f177e802f000000000000000000000000000000000000000000000000000000008152600401611ca5929190612cec565b60405180910390fd5b505050565b606060405180602001604052806000815250905090565b6060611cd582611084565b506000611ce0611cb3565b90506000815111611d005760405180602001604052806000815250611d2b565b80611d0a84611e5e565b604051602001611d1b929190612a4a565b6040516020818303038152906040525b915050919050565b60007f01ffc9a7000000000000000000000000000000000000000000000000000000007bffffffffffffffffffffffffffffffffffffffffffffffffffffffff1916827bffffffffffffffffffffffffffffffffffffffffffffffffffffffff1916149050919050565b60008073ffffffffffffffffffffffffffffffffffffffff168373ffffffffffffffffffffffffffffffffffffffff1614158015611e5557508273ffffffffffffffffffffffffffffffffffffffff168473ffffffffffffffffffffffffffffffffffffffff161480611e165750611e158484610d59565b5b80611e5457508273ffffffffffffffffffffffffffffffffffffffff16611e3c8361110c565b73ffffffffffffffffffffffffffffffffffffffff16145b5b90509392505050565b606060006001611e6d84611f2c565b01905060008167ffffffffffffffff811115611e8c57611e8b61244b565b5b6040519080825280601f01601f191660200182016040528015611ebe5781602001600182028036833780820191505090505b509050600082602001820190505b600115611f21578080600190039150507f3031323334353637383961626364656600000000000000000000000000000000600a86061a8153600a8581611f1557611f14612d15565b5b04945060008503611ecc575b819350505050919050565b600080600090507a184f03e93ff9f4daa797ed6e38ed64bf6a1f0100000000000000008310611f8a577a184f03e93ff9f4daa797ed6e38ed64bf6a1f0100000000000000008381611f8057611f7f612d15565b5b0492506040810190505b6d04ee2d6d415b85acef81000000008310611fc7576d04ee2d6d415b85acef81000000008381611fbd57611fbc612d15565b5b0492506020810190505b662386f26fc100008310611ff657662386f26fc100008381611fec57611feb612d15565b5b0492506010810190505b6305f5e100831061201f576305f5e100838161201557612014612d15565b5b0492506008810190505b612710831061204457612710838161203a57612039612d15565b5b0492506004810190505b60648310612067576064838161205d5761205c612d15565b5b0492506002810190505b600a8310612076576001810190505b80915050919050565b6000604051905090565b600080fd5b600080fd5b60007fffffffff0000000000000000000000000000000000000000000000000000000082169050919050565b6120c881612093565b81146120d357600080fd5b50565b6000813590506120e5816120bf565b92915050565b60006020828403121561210157612100612089565b5b600061210f848285016120d6565b91505092915050565b60008115159050919050565b61212d81612118565b82525050565b60006020820190506121486000830184612124565b92915050565b600081519050919050565b600082825260208201905092915050565b60005b8381101561218857808201518184015260208101905061216d565b60008484015250505050565b6000601f19601f8301169050919050565b60006121b08261214e565b6121ba8185612159565b93506121ca81856020860161216a565b6121d381612194565b840191505092915050565b600060208201905081810360008301526121f881846121a5565b905092915050565b6000819050919050565b61221381612200565b811461221e57600080fd5b50565b6000813590506122308161220a565b92915050565b60006020828403121561224c5761224b612089565b5b600061225a84828501612221565b91505092915050565b600073ffffffffffffffffffffffffffffffffffffffff82169050919050565b600061228e82612263565b9050919050565b61229e81612283565b82525050565b60006020820190506122b96000830184612295565b92915050565b6122c881612283565b81146122d357600080fd5b50565b6000813590506122e5816122bf565b92915050565b6000806040838503121561230257612301612089565b5b6000612310858286016122d6565b925050602061232185828601612221565b9150509250929050565b60008060006060848603121561234457612343612089565b5b6000612352868287016122d6565b9350506020612363868287016122d6565b925050604061237486828701612221565b9150509250925092565b60006020828403121561239457612393612089565b5b60006123a2848285016122d6565b91505092915050565b6123b481612200565b82525050565b60006020820190506123cf60008301846123ab565b92915050565b6123de81612118565b81146123e957600080fd5b50565b6000813590506123fb816123d5565b92915050565b6000806040838503121561241857612417612089565b5b6000612426858286016122d6565b9250506020612437858286016123ec565b9150509250929050565b600080fd5b600080fd5b7f4e487b7100000000000000000000000000000000000000000000000000000000600052604160045260246000fd5b61248382612194565b810181811067ffffffffffffffff821117156124a2576124a161244b565b5b80604052505050565b60006124b561207f565b90506124c1828261247a565b919050565b600067ffffffffffffffff8211156124e1576124e061244b565b5b6124ea82612194565b9050602081019050919050565b82818337600083830152505050565b6000612519612514846124c6565b6124ab565b90508281526020810184848401111561253557612534612446565b5b6125408482856124f7565b509392505050565b600082601f83011261255d5761255c612441565b5b813561256d848260208601612506565b91505092915050565b600080600080608085870312156125905761258f612089565b5b600061259e878288016122d6565b94505060206125af878288016122d6565b93505060406125c087828801612221565b925050606085013567ffffffffffffffff8111156125e1576125e061208e565b5b6125ed87828801612548565b91505092959194509250565b600080604083850312156126105761260f612089565b5b600061261e858286016122d6565b925050602061262f858286016122d6565b9150509250929050565b7f4e487b7100000000000000000000000000000000000000000000000000000000600052602260045260246000fd5b6000600282049050600182168061268057607f821691505b60208210810361269357612692612639565b5b50919050565b60006060820190506126ae6000830186612295565b6126bb60208301856123ab565b6126c86040830184612295565b949350505050565b7f5469636b6574206f776e6572206f6e6c79000000000000000000000000000000600082015250565b6000612706601183612159565b9150612711826126d0565b602082019050919050565b60006020820190508181036000830152612735816126f9565b9050919050565b7f5469636b657420616c7265616479207573656400000000000000000000000000600082015250565b6000612772601383612159565b915061277d8261273c565b602082019050919050565b600060208201905081810360008301526127a181612765565b9050919050565b7f416c6c207469636b65747320736f6c64206f7574000000000000000000000000600082015250565b60006127de601483612159565b91506127e9826127a8565b602082019050919050565b6000602082019050818103600083015261280d816127d1565b9050919050565b7f496e636f7272656374207061796d656e7420616d6f756e740000000000000000600082015250565b600061284a601883612159565b915061285582612814565b602082019050919050565b600060208201905081810360008301526128798161283d565b9050919050565b7f4e487b7100000000000000000000000000000000000000000000000000000000600052601160045260246000fd5b60006128ba82612200565b91506128c583612200565b92508282019050808211156128dd576128dc612880565b5b92915050565b60006128ee82612200565b91507fffffffffffffffffffffffffffffffffffffffffffffffffffffffffffffffff82036129205761291f612880565b5b600182019050919050565b600081519050919050565b600082825260208201905092915050565b60006129528261292b565b61295c8185612936565b935061296c81856020860161216a565b61297581612194565b840191505092915050565b60006080820190506129956000830187612295565b6129a26020830186612295565b6129af60408301856123ab565b81810360608301526129c18184612947565b905095945050505050565b6000815190506129db816120bf565b92915050565b6000602082840312156129f7576129f6612089565b5b6000612a05848285016129cc565b91505092915050565b600081905092915050565b6000612a248261214e565b612a2e8185612a0e565b9350612a3e81856020860161216a565b80840191505092915050565b6000612a568285612a19565b9150612a628284612a19565b91508190509392505050565b60008190508160005260206000209050919050565b60006020601f8301049050919050565b600082821b905092915050565b600060088302612ad07fffffffffffffffffffffffffffffffffffffffffffffffffffffffffffffffff82612a93565b612ada8683612a93565b95508019841693508086168417925050509392505050565b6000819050919050565b6000612b17612b12612b0d84612200565b612af2565b612200565b9050919050565b6000819050919050565b612b3183612afc565b612b45612b3d82612b1e565b848454612aa0565b825550505050565b600090565b612b5a612b4d565b612b65818484612b28565b505050565b5b81811015612b8957612b7e600082612b52565b600181019050612b6b565b5050565b601f821115612bce57612b9f81612a6e565b612ba884612a83565b81016020851015612bb7578190505b612bcb612bc385612a83565b830182612b6a565b50505b505050565b600082821c905092915050565b6000612bf160001984600802612bd3565b1980831691505092915050565b6000612c0a8383612be0565b9150826002028217905092915050565b612c238261214e565b67ffffffffffffffff811115612c3c57612c3b61244b565b5b612c468254612668565b612c51828285612b8d565b600060209050601f831160018114612c845760008415612c72578287015190505b612c7c8582612bfe565b865550612ce4565b601f198416612c9286612a6e565b60005b82811015612cba57848901518255600182019150602085019450602081019050612c95565b86831015612cd75784890151612cd3601f891682612be0565b8355505b6001600288020188555050505b505050505050565b6000604082019050612d016000830185612295565b612d0e60208301846123ab565b9392505050565b7f4e487b7100000000000000000000000000000000000000000000000000000000600052601260045260246000fdfea2646970667358221220a2064ab5af006bc9260da2affe10b27f203edce11171d6cf34654fb21705bc2d64736f6c63430008140033a26469706673582212200136f67176a7b1d2b5e5736b90ed9492e0b81f6cd644ef81b2732a2abf97a57b64736f6c63430008140033",
  "linkReferences": {},
  "deployedLinkReferences": {}
}